:10000000D81400208911000085110000851100001E
:10001000851100008511000085110000000000001E
:1000200000000000000000000000000019020000B5
:100030008511000000000000510200008D02000048
:100040008511000085110000851100008511000058
:100050008511000085110000851100008511000048
:100060008511000085110000851100008511000038
:100070008511000085110000851100008511000028
:100080008511000085110000851100008511000018
:100090008511000085110000851100008511000008
:1000A00085110000851100008511000085110000F8
:1000B00085110000851100008511000085110000E8
:1000C00085110000851100008511000085110000D8
:1000D00085110000851100008511000085110000C8
:1000E00085110000851100008511000085110000B8
:1000F00085110000851100008511000085110000A8
:100100008511000085110000851100008511000097
:100110008511000085110000851100008511000087
:100120008511000085110000851100008511000077
:100130008511000085110000851100008511000067
:100140008511000085110000851100008511000057
:100150008511000085110000851100008511000047
:100160008511000085110000851100008511000037
:100170008511000085110000851100008511000027
:1001800010B5054C237833B9044B13B10448AFF3D1
:1001900000800123237010BD300400200000000007
:1001A000A813000008B5064B1BB106480649AFF37B
:1001B00000800648036813B1054B03B1984708BD9A
:1001C00000000000A813000034040020A813000061
:1001D0000000000043685A684A6042688A605A68B2
:1001E00091605960416008610368013303607047A2
:1001F000436882689A60836842685A6003695A68F3
:10020000824204BF82685A60002202611A68013A81
:100210001A601868704700BF064B19680868B0E894
:10022000F00F80F309884FF0000080F311884EF042
:100230000D0E7047C0040020EFF311804FF0A001B5
:1002400081F311887047002080F31188704700BF48
:10025000EFF309800C4B1A6820E9F00F10602DE9CC
:1002600008404FF0A00080F3118800F0B5F84FF07F
:10027000000080F31188BDE8084019680868B0E8FC
:10028000F00F80F309887047C004002008B54FF0D4
:100290008052054B1A60054B9847054B9847002044
:1002A000044B984708BD00BF04ED00E03902000090
:1002B000B9020000490200002DE9F0413A4B1B68E9
:1002C000002B6BD1394B1A6801321A601B6803BBD3
:1002D000374B1B681B681BB1364B984700BFFDE7C7
:1002E000334B1968344A106818601160334A11683A
:1002F000013111601B681B6823B94FF0FF32304B8E
:100300001A6006E02A4B1B68DB68DB685A682C4BD6
:100310001A60264B1A682A4B1B689A4242D3244B18
:100320001B681B684BB1224B1B68DB68DC68636889
:100330001E4A1268934213D90EE04FF0FF32204B51
:100340001A60BDE8F0811A4B1B68DB68DC686368E3
:10035000164A1268934207D9194A1360BDE8F08122
:10036000184E194FDFF86C80251D2846B047A36A48
:1003700013B104F11800B047E36A3A68934288BFAA
:100380003B6003EB830008EB800029460F4B984746
:10039000074B1B681B68002BD5D1CEE70C4B1A68A6
:1003A00001321A60BDE8F081BC040020C8040020BE
:1003B0005004002039020000CC040020C4040020B6
:1003C00000000020F101000054040020D5010000CD
:1003D0004C0400205804002008B51D4B1B685BB975
:1003E0001C4B1B6803EB83039B001B4AD358CBB900
:1003F000184B1B6853B905E00122184B1A6008BD61
:100400001A682AB9164B984700BFFDE7114B1249ED
:100410001A68013A1A601A6802EB820251F8222027
:10042000002AEDD00B4B1B6803EB83030A4A02EB57
:1004300083035A6852685A6003F108018A4204BF74
:1004400052685A605B68DA68064B1A6008BD00BFE4
:10045000BC0400205404002058040020D0040020D4
:1004600039020000C004002070B4EFF3108272B6AD
:10047000BFF35F8F00240D4B1C7085000C4B53F8AD
:100480002040012606FA01F12143203505F47F754D
:1004900045F02A45074CA56543F8201022B9034BC7
:1004A0001E70BFF35F8F62B670BC704704000020FF
:1004B00020000E4000000E4070B4EFF3108272B6C0
:1004C000BFF35F8F00240E4B1C7085000D4B53F85B
:1004D0002040012606FA01F124EA0101203505F445
:1004E0007F7545F02A45084CA56543F8201022B9D0
:1004F000034B1E70BFF35F8F62B670BC704700BFC6
:100500000400002020000E4000000E4038B50446D4
:10051000EFF3108572B6BFF35F8F00220A4B1A709B
:100520000A4B9B6A1BB901200521094B98472DB93D
:100530000122054B1A70BFF35F8F62B6022021467D
:10054000034B984738BD00BF0400002000000E4058
:100550006904000010B5014602200C4B9847EFF3E8
:10056000108472B6BFF35F8F0022094B1A70094BDB
:100570009B6A1BB901200521044B98472CB9012225
:10058000034B1A70BFF35F8F62B610BDB904000051
:100590000400002000000E4038B50446EFF310853B
:1005A00072B6BFF35F8F00220A4B1A700A4BDB6AE8
:1005B0001BB901200621094B98472DB90122054B93
:1005C0001A70BFF35F8F62B603202146034B984732
:1005D00038BD00BF0400002000000E406904000088
:1005E00010B5014603200C4B9847EFF3108472B608
:1005F000BFF35F8F0022094B1A70094BDB6A1BB9EE
:1006000001200621044B98472CB90122034B1A7094
:10061000BFF35F8F62B610BDB90400000400002074
:1006200000000E4008B5B34B984200F05A816AD8DA
:10063000A3F5A023984200F013812FD8A3F58033AF
:10064000984200F0F28014D8A3F58033984200F06D
:10065000D28004D8B0F1402F00F0C98008BDA64B6D
:10066000984200F0CC8003F58043984200F0D2809D
:1006700008BDA24B984200F0E08005D8A3F5705366
:10068000984200F0D68008BD9D4B984200F0D9807A
:1006900003F5F843984200F0D88008BD994B984282
:1006A00000F0078115D8A3F58033984200F0EE8062
:1006B00005D8A3F58043984200F0DD8008BD924B39
:1006C000984200F0EE8003F58043984200F0ED8000
:1006D00008BD8E4B984200F0F8800AD8A3F500437D
:1006E000984200F0EA8003F58043984200F0E980E8
:1006F00008BD874B984200F0EC8003F58043984298
:1007000000F0EB8008BD834B984200F04D8134D857
:10071000A3F57C33984200F0278115D8A3F5043364
:10072000984200F00D8105D8A3F58043984200F06F
:10073000DC8008BD784B984200F0068103F58063A9
:10074000984200F0098108BD744B984200F0208166
:100750000AD8A3F54053984200F00A8103F50053EC
:10076000984200F00D8108BD6D4B984200F0188151
:1007700003F52043984235D008BD6A4B984200F0FB
:100780002C8115D8A3F57843984200F0178105D83D
:10079000A3F58063984200F00C8108BD624B98423B
:1007A00000F0118103F58063984200F0118108BDCB
:1007B0005E4B984200F020810AD8A3F5006398426E
:1007C00000F0108103F58063984200F0108108BDAD
:1007D000574B984200F0158103F58063984200F072
:1007E000158108BD01200921524B984708BD002002
:1007F000514B984708BD01204F4B984708BD022038
:100800004D4B9847434B1A6C42F055024B49996542
:100810001A6408BD0320484B98473E4B1A6C42F0BF
:100820005502464999651A6408BD0420424B984711
:1008300008BD0520404B984708BD06203E4B984711
:1008400008BD07203C4B984708BD08203A4B984705
:10085000304B1A6C42F00402384999651A6408BD9D
:100860000920354B98472B4B1A6C42F00402334950
:1008700099651A6408BD0A202F4B9847254B1A6CBE
:1008800042F004022D4999651A6408BD0B202A4BD9
:100890009847204B1A6C42F00402284999651A6463
:1008A00008BD0C20244B984708BD0D20224B9847CB
:1008B00008BD0E20204B984708BD0F201E4B9847BF
:1008C00008BD10201C4B984708BD11201A4B9847B3
:1008D00008BD1220184B984708BD1320164B9847A7
:1008E00008BD1520144B984708BD1620124B984799
:1008F00008BD00BF008007400000014000C001406B
:1009000000C4014000000440008003400080064015
:1009100000C0064000000E4000000A4000500A409F
:1009200000600A4000000F40000C0E40000C0F4019
:1009300000100F40690400000D050000400000AAEF
:100940001720354B984708BD01200146334B984787
:100950000020334B984708BD012002212F4B9847B8
:1009600001202F4B984708BD02202D4B984708BD0A
:1009700001200021294B98470320294B984708BDA7
:1009800001200421254B98470420254B984708BD9A
:1009900001200321214B98470520214B984708BD92
:1009A00006201F4B984708BD042000211B4B984789
:1009B00008BD04200121194B984708BD04200221DD
:1009C000164B984708BD04200321144B984708BDD7
:1009D00004200146114B984708BD052000210F4B0C
:1009E000984708BD052001210C4B984708BD0520FC
:1009F00002210A4B984708BD05200321074B984761
:100A000008BD05200421054B984708BD0520014677
:100A1000024B984708BD00BF0D05000069040000A7
:100A20009905000008B5B44B984200F030816AD8AF
:100A3000A3F5A023984200F0FE802FD8A3F58033C1
:100A4000984200F0E48014D8A3F58033984200F077
:100A5000D28004D8B0F1402F00F0C98008BDA74B68
:100A6000984200F0CC8003F58043984200F0CB80A0
:100A700008BDA34B984200F0D28005D8A3F570536F
:100A8000984200F0C88008BD9E4B984200F0CB8091
:100A900003F5F843984200F0CA8008BD9A4B98428B
:100AA00000F0DD8015D8A3F58033984200F0CB80AC
:100AB00005D8A3F58043984200F0C18008BD934B50
:100AC000984200F0C48003F58043984200F0C38050
:100AD00008BD8F4B984200F0CE800AD8A3F50043A2
:100AE000984200F0C08003F58043984200F0BF8038
:100AF00008BD884B984200F0C28003F580439842BD
:100B000000F0C18008BD844B984200F01F8134D8AA
:100B1000A3F57C33984200F0D28015D8A3F50433B6
:100B2000984200F0BC8005D8A3F58043984200F0BD
:100B3000B28008BD794B984200F0B58003F5806320
:100B4000984200F0B48008BD754B984200F0CB800D
:100B50000AD8A3F54053984200F0B58003F500533E
:100B6000984200F0B88008BD6E4B984200F0EA80D1
:100B700003F52043984235D008BD6B4B984200F0F6
:100B8000FE8015D8A3F57843984200F0E98005D897
:100B9000A3F58063984200F0DE8008BD634B984265
:100BA00000F0E38003F58063984200F0E38008BD25
:100BB0005F4B984200F0F2800AD8A3F50063984298
:100BC00000F0E28003F58063984200F0E28008BD07
:100BD000584B984200F0E78003F58063984200F09C
:100BE000E78008BD01200921534B9847E4E000202D
:100BF000524B9847E0E00120504B9847DCE0022040
:100C00004E4B9847D8E003204C4B9847D4E0042043
:100C10004A4B9847D0E00520484B9847CCE0062047
:100C2000464B9847C8E00720444B9847C4E008204B
:100C3000424B9847C0E00920404B9847BCE00A204F
:100C40003E4B9847B8E00B203C4B9847B4E00C2053
:100C50003A4B9847B0E00D20384B9847ACE00E2057
:100C6000364B9847A8E00F20344B9847A4E010205B
:100C7000324B9847A0E01120304B98479CE012205F
:100C80002E4B984798E013202C4B984794E0152062
:100C90002A4B984790E01620284B98478CE0172065
:100CA000264B984788E00020254B984784E0012098
:100CB0000221214B98470120214B98477CE00220DC
:100CC0001F4B984778E0012000211B4B98470320D9
:100CD0001B4B984770E001200421174B98470420D4
:100CE000174B984768E001200321134B98470520D4
:100CF000134B984760E000BF0080074000000140B0
:100D000000C0014000C401400000044000800340D6
:100D10000080064000C0064000000E4000000A406F
:100D200000500A4000600A4000000F40000C0E40D6
:100D3000000C0F4000100F40B904000055050000E2
:100D4000E10500000620234B984735E004200021F0
:100D5000214B984730E0042001211F4B98472BE09E
:100D6000042002211C4B984726E0042003211A4B43
:100D7000984721E004200146174B98471CE00520C6
:100D80000021154B984717E005200121124B984789
:100D900012E005200221104B98470DE005200321A9
:100DA0000D4B984708E0052004210B4B984703E0C2
:100DB00005200146084B9847084B9A6A40F60C7389
:100DC0001A4206D1054B1A6C22F07F02044999653C
:100DD0001A6408BDE1050000B904000000000E40DF
:100DE000400000AAF0B587B06846954B984704A824
:100DF00094496A46944B984704A8944B9847944862
:100E0000944B984701220023144601E0013201333C
:100E10004E2BFBD023F002014829F7D0022BF5D04E
:100E2000590901F5001101F5E161490203F01F00C4
:100E300004FA00F08864C1F864014867C1F88800CA
:100E4000C1F8C800C1F808018861886288635F2A18
:100E5000DCD9814B4FF480625A64C3F868219A65EB
:100E600008229A67C3F88820C3F8C820C3F808216D
:100E70005A619A629A639A60754A40219167C2F8F2
:100E80008810C2F8C810C2F80811916151629163CC
:100E900091604FF480405864C3F8680198654FF042
:100EA00000709067C2F88800C2F8C800C2F8080154
:100EB00090619062906390604FF080609067C2F89C
:100EC0008800C2F8C800C2F808019061906290637F
:100ED0009060624820258564C0F864514FF48077A3
:100EE0005F64C3F868715F6580249C64C3F86441E3
:100EF0004FF400609867C3F88800C3F8C800C3F8CF
:100F0000080158619862986398604FF48050986720
:100F1000C3F88800C3F8C800C3F808015861986294
:100F20009863986004209867C3F88800C3F8C800E5
:100F3000C3F8080198615862986398609467C2F892
:100F40008840C2F8C840C2F8084154619462946372
:100F5000946010269E67C3F88860C3F8C860C3F821
:100F600008619E619E629E639E609D67C3F8885083
:100F7000C3F8C850C3F808519D619D629D639D6090
:100F80009967C3F88810C3F8C810C3F808119961AD
:100F90009962996399609067C2F88800C2F8C800A6
:100FA000C2F80801506190629063906001259D67CE
:100FB000C3F88850C3F8C850C3F808519D619D62BA
:100FC0009D639D6002259D67C3F88850C3F8C85093
:100FD000C3F808519D619D629D639D609867C3F849
:100FE0008800C3F8C800C3F8080198615862986384
:100FF00098609467C2F88840C2F8C840C2F80841B7
:1010000054619462946394609167C2F88810C2F846
:10101000C810C2F8081151619162916391605F64D8
:10102000C3F868719F659167C2F88810C2F8C8104C
:10103000C2F80811916191629163916007B0F0BDAF
:1010400099100000000C0F40B11000005D1100006D
:1010500000100E402506000000140E4000120E4045
:1010600082B00C4B1B6813F4003F0CBF0223082313
:101070000193019BDB080193019B5A1E0192002BF7
:10108000FAD140F0AA42034B1A6040F02A4018609F
:1010900002B07047000C0F40002303604360102231
:1010A0000272437201228272C2720373704700BFE0
:1010B00038B50C461546016042600846244B9847F7
:1010C000236813F0080F41D1236813F0010F08D0F3
:1010D000206820F001001F4B9847236813F0010F90
:1010E000FBD1236813F4803F08D0206820F48030BF
:1010F000184B9847236813F4803FFBD16A682B682C
:101100001343287A000200F4F8501843697A8904DE
:1011100001F4F8010843AB7A002B0CBF00218021B9
:101120000843EB7A002B0CBF002302231843094D20
:10113000A847206840F48030A847236813F4803F14
:10114000FBD02046044B9847012038BD002038BD15
:101150002506000061100000250A000010B5046893
:10116000206820F00100054B9847236813F0010F19
:10117000FBD12046024B984710BD00BF6110000014
:10118000250A0000FEE700BF10B5194B194A9A4224
:1011900003D0194B164A9A4204D3184B184A9A4264
:1011A0000FD31AE0174B184CE41A24F0030404344C
:1011B00000230F480F495A581A500433A342FAD15A
:1011C000EBE7124B1249C91A21F003011A1D114411
:1011D000002243F8042F8B42FBD10E4B0E4A22F023
:1011E0007F029A600D4B98470D4B9847FEE700BF72
:1011F00000000020A813000030040020D4040020C8
:101200003004002004000020330400202C040020BF
:10121000CF04002000ED00E00000000035120000C7
:101220002512000008B5024B9847002008BD00BFFA
:10123000E50D000070B50F4E0F4D761BB61007D0B0
:10124000043D0024013455F8043F9847A642F9D1E3
:101250000A4E0B4D761B00F095F8B61008D0043DF1
:101260000024013455F8043F9847A642F9D170BDD7
:1012700070BD00BF90130000901300009813000091
:1012800090130000024B13B1024800F005B87047FC
:1012900000000000A512000001460020024603469F
:1012A00000F018B838B5094D094C641BA41018BFDC
:1012B00005EB840505D0013C55F8043D9847002C0A
:1012C000F9D1BDE8384000F067B800BFA4130000B2
:1012D000A8130000F0B5274C2668D6F8484185B021
:1012E0000746002C41D065681F2D1EDD224818B925
:1012F0004FF0FF3005B0F0BD4FF4C870039102927B
:101300000193AFF300800399029A019B04460028E1
:10131000EED0D6F848512560002060600546C6F83A
:101320004841C4F88801C4F88C013FB9AB1C0020C7
:101330000135656044F8231005B0F0BD04EB85006D
:101340004FF0010CC0F88820D4F888610CFA05F23F
:101350001643022FC4F88861C0F80831E6D1D4F8EA
:101360008C311A43C4F88C21E0E706F5A674C6F860
:101370004841B8E78013000000000000430000006F
:1013800008000020F8B500BFF8BC08BC9E467047B6
:1013900085120000A5010000F8B500BFF8BC08BC2C
:0813A0009E4670478101000028
:1013A800FFFFFFFF0100000000000000F402002022
:1013B8005C030020C40300200000000000000000BF
:1013C8000000000000000000000000000000000015
:1013D8000000000000000000000000007C13000076
:1013E80000000000000000000000000000000000F5
:1013F80000000000000000000000000000000000E5
:1014080000000000000000000000000000000000D4
:1014180000000000000000000000000000000000C4
:1014280000000000000000000000000000000000B4
:1014380000000000000000000000000000000000A4
:101448000000000000000000000000000000000094
:1014580001000000000000000E33CDAB34126DE631
:10146800ECDE05000B00000000000000000000009A
:101478000000000000000000000000000000000064
:101488000000000000000000000000000000000054
:101498000000000000000000000000000000000044
:1014A8000000000000000000000000000000000034
:04000003000011895F
:00000001FF
