S00B00006176722E73726563D0
S11300000C946B000C94E4020C942B010C94880067
S11300100C9488000C9488000C9488000C941901AA
S11300200C9488000C9488000C9488000C9488002C
S11300300C9488000C94EA090C949C020C9488009B
S11300400C9488000C9488000C9488000C9488000C
S11300500C9488000C9496000C9488000C948800EE
S11300600C9488000C948800FF04080511051A05F7
S113007023052C0535053E0547055005C405C40573
S1130080C405C405C405C405C405590562056B054A
S113009074057D058605C405C405C405C405C405E9
S11300A0C405C405C405C405C405C405C405C40504
S11300B0C405C405C405C405C405C405C405C405F4
S11300C0C405C405C405C405C4058F059805A10568
S11300D0AA05B305BC0511241FBECFEFD8E0DEBFCF
S11300E0CDBF12E0A0E0B1E0EAE7FDE102C0059077
S11300F00D92A030B107D9F722E0A0E0B2E001C030
S11301001D92AD35B207E1F70E940E0A0C94BB0EA6
S11301100C940000EAE7F0E08081877F80830895F3
S1130120EAE7F0E080818860808308951F920F924F
S11301300FB60F9211242F933F934F935F936F93B6
S11301407F938F939F93AF93BF93EF93FF930E94FB
S11301508A000E949000FF91EF91BF91AF919F910F
S11301608F917F916F915F914F913F912F910F905C
S11301700FBE0F901F901895109228028FEF809356
S1130180290210922702109226021092170210924E
S113019019021092180284B5826084BD85B582600C
S11301A085BD16BC84E187BDEEE6F0E08081826007
S11301B0808378940895E9E6F0E08081816080830B
S11301C0E89A78940895239AE0EBF0E080818264C1
S11301D080831092B2008091010290910202A0915A
S11301E00302B09104029C01AD01220F331F441F8E
S11301F0551F60E074E284EF90E00E94650A21508C
S11302002093B3000895E1EBF0E080818160808366
S1130210E6EBF0E080818171E9F70895E1EBF0E02D
S11302208081887F8083E6EBF0E080818171E9F74B
S113023008951F920F920FB60F9211240F900FBEC4
S11302400F901F901895E9E6F0E080818460808328
S1130250E99A789408951F920F920FB60F92112481
S11302600F900FBE0F901F901895009759F01092A1
S11302701D0210921C0220911C0230911D02821753
S11302809307C8F70895CF93DF93EC010E9403010D
S1130290CE010E943501DF91CF910895CF93DF9372
S11302A0EC010E940E01CE010E943501DF91CF9135
S11302B0089582E190E00E94A80D8130B1F160E7D9
S11302C074E980E090E00E94C80D68EE73E082E07B
S11302D090E00E94C80D6CEC71E084E090E00E9414
S11302E0C80D62EB71E086E090E00E94C80D63E403
S11302F070E088E090E00E94C80D6BE970E08AE04D
S113030090E00E94C80D6BE270E08CE090E00E94E7
S1130310C80D60E270E08EE090E00E94C80D6AE0D3
S11303207AE280E190E00E94C80D61E082E190E011
S11303300E94B60D80E090E00E94B00DA0E0B0E015
S11303408093010290930202A0930302B0930402EB
S113035082E090E00E94B00D909306028093050223
S113036084E090E00E94B00D90930802809307020D
S113037086E090E00E94B00D90930A0280930902F7
S113038088E090E00E94B00D90930C0280930B02E1
S11303908AE090E00E94B00D90930E0280930D02CB
S11303A08CE090E00E94B00D9093100280930F02B5
S11303B08EE090E00E94B00D90931202809311029F
S11303C080E190E00E94B00D909314028093130298
S11303D008958F929F92AF92BF92CF92DF92EF9245
S11303E0FF920F931F93CF93DF9300D000D01F92FF
S11303F0CDB7DEB7109215026115710561F16C017C
S11304005C01A60EB71E0F2EF5E09F2EF02DCE0137
S113041001967C018E010B5F1F4FF701892D11920C
S11304208A95E9F7B701F60181916F010E94F404FE
S1130430F701A0911502B0E08191A65DBD4F8C93A8
S1130440809115028F5F80931502E017F10789F7F9
S1130450CA14DB0411F780910702909108020E94EC
S113046043018091090290910A020E944E018091F9
S1130470110290911202892BC1F100E010E00F2EBD
S1130480FBE0AF2EF2E0BF2EF02D0F2EFFE0CF2EBB
S1130490F2E0DF2EF02D0F2EFDE08F2EF2E09F2EE6
S11304A0F02D0F2EF1E1EF2EF2E0FF2EF02DF801EA
S11304B0E65DFD4F8081813331F4F40180819181C7
S11304C00E944E010AC0F501808191810E9443017E
S11304D0F601808191810E944E010F5F1F4FF70149
S11304E0808191810817190710F380910B02909174
S11304F00C020E94430180E090E00E944E010F90A4
S11305000F900F900F900F90DF91CF911F910F914B
S1130510FF90EF90DF90CF90BF90AF909F908F901F
S11305200895109228021092270210922602109227
S113053019021092180208951F920F920FB60F928B
S113054011242F933F934F935F936F937F938F93D4
S11305509F93AF93BF93EF93FF9380911A0290916F
S11305601B02019690931B0280931A028091290228
S1130570811110C080911A0290911B0220911302E4
S1130580309114022817390728F40E9491028FEF42
S11305908093290280911C0290911D0201969093F0
S11305A01D0280931C02FF91EF91BF91AF919F9127
S11305B08F917F916F915F914F913F912F910F9008
S11305C00FBE0F901F9018951F920F920FB60F92A7
S11305D011242F933F934F935F936F937F938F9344
S11305E09F93AF93BF93EF93FF93CF93DF931F92A8
S11305F0CDB7DEB780911A0290911B0210921B02B4
S113060010921A0216BC109229022091280222305C
S113061071F128F4222349F0213099F0CCC0233021
S1130620E1F1243009F447C0C6C02091050230919D
S113063006022817390708F0BEC081E0809328021B
S1130640BAC02091070230910802A901425351090E
S11306504817590748F4255B3F4F8217930720F446
S113066082E080932802A7C00E949102A4C0209136
S1130670090230910A02A901425351094817590746
S113068048F42E5C3F4F8217930720F483E0809355
S1130690280291C00E9491028EC0209107023091DD
S11306A008022817390720F084E08093280283C0C9
S11306B00E94910280C02091260230912702F90104
S11306C0E370FF2720912602309127024091110206
S11306D050911202415051094217530718F40E94D5
S11306E0910269C060910D0270910E0240910F0257
S11306F0509110024617570790F462537109681716
S1130700790738F480911702880F8F5F809317025E
S113071017C080911702880F8093170211C04253AB
S113072051094817590738F480911702880F8F5FD1
S11307308093170205C080911702880F80931702D7
S1130740339769F5198280911702BE016F5F7F4F5D
S11307500E94C50510921702E0911802F091190247
S11307608981E25EFD4F8083809118029091190285
S11307700196909319028093180280911802909127
S11307801902089761F468E070E08EE192E00E943B
S1130790600968E070E08EE192E00E94100483E05A
S11307A080932802809126029091270201969093CB
S11307B02702809326020F90DF91CF91FF91EF9152
S11307C0BF91AF919F918F917F916F915F914F9165
S11307D03F912F910F900FBE0F901F90189561E0DD
S11307E080E00E94210A61E081E00E94210A61E028
S11307F082E00E94210A61E083E00E94210A60E015
S113080080E00E94450A60E081E00E94450A60E0C1
S113081082E00E94450A60E083E00E94450A089550
S1130820CF93DF93EC0148E050E066E071E00E9472
S11308304A07892B29F461E080E00E94450AD1C06F
S113084048E050E06FE071E0CE010E944A07892B36
S113085029F460E080E00E94450AC3C048E050E00B
S113086068E171E0CE010E944A07892B29F461E016
S113087081E00E94450AB5C048E050E061E271E0C1
S1130880CE010E944A07892B29F460E081E00E948E
S1130890450AA7C048E050E06AE271E0CE010E9438
S11308A04A07892B29F461E082E00E94450A99C035
S11308B048E050E063E371E0CE010E944A07892BCF
S11308C029F460E082E00E94450A8BC048E050E0D1
S11308D06CE371E0CE010E944A07892B29F461E0A0
S11308E083E00E94450A7DC048E050E065E471E081
S11308F0CE010E944A07892B29F460E083E00E941C
S1130900450A6FC048E050E06EE471E0CE010E94F9
S11309104A07892B29F461E080E00E94450A61C0FE
S113092048E050E067E571E0CE010E944A07892B58
S113093029F460E080E00E94450A53C048E050E09A
S113094060E671E0CE010E944A07892B29F461E038
S113095081E00E94450A45C048E050E069E671E044
S1130960CE010E944A07892B29F460E081E00E94AD
S1130970450A37C048E050E062E771E0CE010E94CA
S11309804A07892B29F461E082E00E94450A29C0C4
S113099048E050E06BE771E0CE010E944A07892BE2
S11309A029F460E082E00E94450A1BC048E050E060
S11309B064E871E0CE010E944A07892B29F461E0C2
S11309C083E00E94450A0DC048E050E06DE871E004
S11309D0CE010E944A07892B21F460E083E00E9443
S11309E0450ADF91CF91089590E0FC01F097E73339
S11309F0F10508F0C9C0EC5CFF4F0C94870A85E050
S1130A00E6E9F1E0DB0101900D928A95E1F70895A2
S1130A1085E0EBE9F1E0DB0101900D928A95E1F7C5
S1130A20089585E0E0EAF1E0DB0101900D928A95FA
S1130A30E1F7089585E0E5EAF1E0DB0101900D922C
S1130A408A95E1F7089585E0EAEAF1E0DB01019097
S1130A500D928A95E1F7089585E0EFEAF1E0DB0174
S1130A6001900D928A95E1F7089585E0E4EBF1E0B9
S1130A70DB0101900D928A95E1F7089585E0E9EB99
S1130A80F1E0DB0101900D928A95E1F7089585E08C
S1130A90EEEBF1E0DB0101900D928A95E1F7089508
S1130AA085E0E3ECF1E0DB0101900D928A95E1F73A
S1130AB0089585E0E8ECF1E0DB0101900D928A9560
S1130AC0E1F7089585E0EDECF1E0DB0101900D9292
S1130AD08A95E1F7089585E0E2EDF1E0DB0101900C
S1130AE00D928A95E1F7089585E0E7EDF1E0DB01E9
S1130AF001900D928A95E1F7089585E0ECEDF1E01F
S1130B00DB0101900D928A95E1F7089585E0E1EE0D
S1130B10F1E0DB0101900D928A95E1F7089585E0FB
S1130B20E8ECF1E0DB0101900D928A95E1F708957C
S1130B3085E0EDECF1E0DB0101900D928A95E1F79F
S1130B40089585E0E2EDF1E0DB0101900D928A95D4
S1130B50E1F7089585E0E7EDF1E0DB0101900D9206
S1130B608A95E1F7089585E0ECEDF1E0DB01019071
S1130B700D928A95E1F7089585E0E1EEF1E0DB015D
S1130B8001900D928A95E1F708958A3020F4805DF2
S1130B90FB0180830895803180F49DEC899F912D21
S1130BA01124969596959695990F292F220F220F29
S1130BB0920F891B8F5BFB0180830895FF920F9333
S1130BC01F93CF93DF931F92CDB7DEB78B01FC0148
S1130BD0F08061157105C9F06F3FFFEF7F07A9F041
S1130BE0BE016F5F7F4F8F2D82958F700E94C50568
S1130BF08981F8018083BE016F5F7F4F8F2D8F70D5
S1130C000E94C5058981F80181830F90DF91CF91FE
S1130C101F910F91FF900895CF92DF92EF92FF9270
S1130C200F931F93CF93DF9300D01F92CDB7DEB7FE
S1130C308C017A0161157105C9F06C01C60ED71ECD
S1130C4019821A821B82BE016F5F7F4FC8010E9406
S1130C50DE058981F70180838A818183F2E0EF0ECA
S1130C60F11C0F5F1F4F0C151D0551F70F900F90CE
S1130C700F90DF91CF911F910F91FF90EF90DF9034
S1130C80CF900895CF93DF93EB01DC010D9000200A
S1130C90E9F71197A81BB90B18821A161B0694F4CE
S1130CA0FC0120E030E040E850E08191813319F408
S1130CB08881840F8883559547952F5F3F4FA217EE
S1130CC0B30799F7DF91CF910895BF92CF92DF9246
S1130CD0EF92FF920F931F93CF93DF93CDB7DEB7BD
S1130CE063970FB6F894DEBF0FBECDBFFC016B0156
S1130CF09E012F5F3F4F89E0D9011D928A95E9F744
S1130D0085E0275F3F4FD901982F1D929A95E9F707
S1130D102B5F3F4FD9011D928A95E9F7309759F11E
S1130D20EF3FBFEFFB0739F1B1808E01065F1F4F24
S1130D30B80180810E94F4047E018FE0E80EF11C6A
S1130D40B7018B2D0E94F404FF92EF921F930F932F
S1130D5086EE91E09F938F93095011091F930F938F
S1130D600E94B40BB601C8010E9442060FB6F89463
S1130D70DEBF0FBECDBF63960FB6F894DEBF0FBEC5
S1130D80CDBFDF91CF911F910F91FF90EF90DF9036
S1130D90CF90BF900895AF92BF92CF92DF92EF921F
S1130DA0FF920F931F93CF93DF9300D000D0CDB762
S1130DB0DEB76B01FC0101900020E9F731975F0178
S1130DC0A81AB90A29F18C010F5F1F4FE12CF12CED
S1130DD019821A821B82F801319780818983F80174
S1130DE080818A83BE016C5F7F4FCE0101960E9491
S1130DF06506C114D10421F08C81F60181936F0141
S1130E00F2E0EF0EF11C0E5F1F4FEA14FB0400F337
S1130E100F900F900F900F90DF91CF911F910F9132
S1130E20FF90EF90DF90CF90BF90AF900895DA01DC
S1130E301C926115710551F0FC01860F971F2191D9
S1130E403C91230F2C93E817F907C9F7089541152E
S1130E505105B9F0FC013081FB012081321314C02B
S1130E60FC013196DB011196480F591F04C0919182
S1130E708D9198130CC0E417F507C9F780E090E052
S1130E80089580E090E008958FEF9FEF08958FEF2D
S1130E909FEF089541155105B9F0FC013081FB0124
S1130EA02081321314C0FC013196DB011196480FE6
S1130EB0591F04C091918D9198130CC0E417F50744
S1130EC0C9F780E090E0089580E090E008958FEF06
S1130ED09FEF08958FEF9FEF089510924C021092A8
S1130EE04B0210924E0210924D0210925002109238
S1130EF04F02109252021092510210925402109218
S1130F00530208950F931F93CF93DF9300D000D023
S1130F101F92CDB7DEB78E010F5F1F4F85E0F8013A
S1130F2011928A95E9F7A80162E070E080914B0282
S1130F3090914C020E940C0644E050E06BEE71E08C
S1130F40C8010E94270721E030E0892B11F420E03A
S1130F5030E088279927821B930B0F900F900F90F6
S1130F600F900F90DF91CF911F910F910895AF9241
S1130F70BF92CF92DF92EF92FF920F931F93CF9382
S1130F80DF93CDB7DEB729970FB6F894DEBF0FBE57
S1130F90CDBF6B015A0179018E010F5F1F4F28E00D
S1130FA0F80111922A95E9F7B8010E94CB06AE0127
S1130FB0475F5F4F66E070E0C8010E9417078985AC
S1130FC08F83188667E070E0C8010E946009B7014A
S1130FD0C5010E949C09F6019183808329960FB66E
S1130FE0F894DEBF0FBECDBFDF91CF911F910F915B
S1130FF0FF90EF90DF90CF90BF90AF900895CF9384
S1131000DF9300D0CDB7DEB71A8219829E012F5F1D
S11310103F4F42E050E06BE472E080EF91E00E94C9
S1131020B7070F900F90DF91CF910895CF92DF9281
S1131030EF92FF920F931F93CF93DF9300D01F92F1
S1131040CDB7DEB7CE0101960E948509892BD1F771
S11310508981803FB9F7CE0101960E948509892BC9
S113106009F002C1E980F12C1B821A82BE016E5F75
S11310707F4FC7010E949C098C01FC018081803F45
S113108009F5C701880F991F01970E948D0A6C0109
S1131090009709F4E9C0B70161507109AC01C801B6
S11310A001960E940C0668E070E0C6010E94E90106
S11310B062E070E08DEF91E00E946009C6010E9439
S11310C0250BCCC0813F09F0A8C0F8018181803F85
S11310D0B9F4E280F12CFE2CEE248381E80EF11C9D
S11310E0B70180E090E00E94C80DA70160E070E0C5
S11310F0409301025093020260930302709304022E
S1131100F8018481813F81F4E580F12CFE2CEE24EA
S11311108681E80EF11CB70182E090E00E94C80DC0
S1131120F0920602E0920502F8018781823F81F481
S1131130E084F12CFE2CEE248185E80EF11CB7012D
S113114084E090E00E94C80DF0920802E092070249
S1131150F8018285833F81F4E384F12CFE2CEE2494
S11311608485E80EF11CB70186E090E00E94C80D6A
S1131170F0920A02E0920902F8018585843F81F425
S1131180E684F12CFE2CEE248785E80EF11CB701D1
S113119088E090E00E94C80DF0920C02E0920B02ED
S11311A0F8018089853F81F4E188F12CFE2CEE243E
S11311B08289E80EF11CB7018AE090E00E94C80D14
S11311C0F0920E02E0920D02F8018389863F81F4C9
S11311D0E488F12CFE2CEE248589E80EF11CB7017D
S11311E08CE090E00E94C80DF0921002E0920F0291
S11311F0F8018689873F91F5E788F12CFE2CEE24CF
S1131200808DE80EF11CB7018EE090E00E94C80DBD
S1131210F0921202E092110221C0823FF9F4C70158
S1131220880F991F01970E948D0A6C010097E1F0C5
S1131230B70161507109AC01C80101960E940C0606
S113124068E070E0C6010E94100462E070E08DEF77
S113125091E00E946009C6010E94250B0115110549
S113126019F0C8010E94250B0F900F900F90DF9189
S1131270CF911F910F91FF90EF90DF90CF90089541
S11312809093C5008093C40088E18093C10086E0F8
S11312908093C200089521E23EE4E0ECF0E005C052
S11312A0215031092115310541F0908195FFF8CF86
S11312B08093C60080E090E008958FEF9FEF08953B
S11312C0EF92FF920F931F93CF93DF937B016115EE
S11312D0710591F0082F192FC0E0D0E0F801819139
S11312E08F010E944B09009711F0CE0107C021968F
S11312F0CE15DF0599F702C080E090E0DF91CF9131
S11313001F910F91FF90EF90089521E23EE4E0ECED
S1131310F0E005C0215031092115310551F040811B
S11313204423C4F72091C600FC01208380E090E0B0
S113133008958FEF9FEF0895AF92BF92CF92DF92FF
S1131340EF92FF920F931F93CF93DF931F92CDB72A
S1131350DEB76C017B01FB011182108201960E94B1
S11313608D0A5C010097D9F0C114D104C1F08C013D
S1131370C80ED91ECE0101960E948509892B51F40D
S11313808981F8018083F701208131812F5F3F4FEC
S1131390318320830F5F1F4F0C151D0559F7C501BD
S11313A00F90DF91CF911F910F91FF90EF90DF90FD
S11313B0CF90BF90AF90089582E080938100109207
S11313C0850010928400EFE6F0E0808181608083E4
S11313D0789408951F920F920FB60F9211248F9351
S11313E08FEF809300028F910F900FBE0F901F908C
S11313F018950E94EF0389E190E00E9440090E9441
S11314006D070E9459010E94BC000E94DB000E94EB
S1131410DC090E94E3000E94230108950E94F90957
S11314200E94FF0760E080E00E94450A0E94820754
S1131430892B21F461E080E00E94450A0E9416088D
S1131440FDCF811107C0613019F4409A389A08958C
S113145038980895813039F4613019F4419A399AF1
S1131460089539980895823039F4613019F4429A14
S11314703A9A08953A980895833031F4613019F412
S1131480439A3B9A08953B980895811106C06130B0
S113149011F4409A089540980895813031F46130F0
S11314A011F4419A089541980895823031F46130DD
S11314B011F4429A089542980895833029F46130D2
S11314C011F4439A089543980895A1E21A2EAA1B91
S11314D0BB1BFD010DC0AA1FBB1FEE1FFF1FA217E0
S11314E0B307E407F50720F0A21BB30BE40BF50BDD
S11314F0661F771F881F991F1A9469F76095709566
S1131500809590959B01AC01BD01CF010895EE0F2C
S1131510FF1F0590F491E02D0994CF93DF9382305F
S1131520910510F482E090E0E0915B02F0915C029E
S113153020E030E0A0E0B0E0309739F14081518103
S113154048175907B8F04817590771F482819381F5
S1131550109729F013969C938E9312972CC0909316
S11315605C0280935B0227C02115310531F04217DC
S1131570530718F0A901DB0101C0EF019A01BD0175
S1131580DF010280F381E02DD7CF21153105F9F079
S1131590281B390B2430310580F48A819B81611525
S11315A0710521F0FB019383828304C090935C0254
S11315B080935B02FE01329644C0FE01E20FF31FEA
S11315C08193919322503109398328833AC0209121
S11315D0590230915A02232B41F420910201309197
S11315E0030130935A022093590220910001309153
S11315F001012115310541F42DB73EB74091040195
S113160050910501241B350BE0915902F0915A02C7
S1131610E217F307A0F42E1B3F0B2817390778F0C5
S1131620AC014E5F5F4F2417350748F04E0F5F1F24
S113163050935A02409359028193919302C0E0E07F
S1131640F0E0CF01DF91CF910895CF93DF9300971E
S113165009F487C0FC01329713821282C0915B02A5
S1131660D0915C02209781F420813181280F391FA9
S11316708091590290915A028217930779F5F09359
S11316805A02E09359026DC0DE0120E030E0AE174B
S1131690BF0750F412964D915C9113979D0141152B
S11316A0510509F1DA01F3CFB383A283408151815B
S11316B0840F951F8A179B0771F48D919C91119744
S11316C0840F951F02969183808312968D919C912D
S11316D01397938382832115310529F4F0935C02D7
S11316E0E0935B023EC0D9011396FC93EE931297EC
S11316F04D915D91A40FB51FEA17FB0779F4808122
S11317009181840F951F0296D90111969C938E9313
S11317108281938113969C938E931297E0E0F0E07C
S11317208A819B81009719F0FE01EC01F9CFCE016B
S1131730029628813981820F931F2091590230919A
S11317405A022817390769F4309729F410925C0279
S113175010925B0202C013821282D0935A02C09389
S11317605902DF91CF910895AEE0B0E0EAEBFBE0DF
S11317700C94920E0D891E8986E08C831A8309834A
S11317808FEF9FE79E838D83AE01475E5F4F6F8926
S1131790788DCE0101960E94D60BEF81F885E00F7B
S11317A0F11F10822E96E4E00C94AE0EACE0B0E093
S11317B0ECEDFBE00C94840E7C016B018A01FC01CE
S11317C017821682838181FFBDC1CE0101964C012F
S11317D0F7019381F60193FD859193FF81916F0148
S11317E0882309F4ABC1853239F493FD859193FFC5
S11317F081916F01853229F4B70190E00E94E40DD4
S1131800E7CF512C312C20E02032A0F48B3269F048
S113181030F4803259F0833269F420612CC08D3267
S113182039F0803339F4216026C02260246023C05B
S1131830286021C027FD27C030ED380F3A3078F4F6
S113184026FF06C0FAE05F9E300D1124532E13C00C
S11318508AE0389E300D1124332E20620CC08E3263
S113186021F426FD6BC1206406C08C3611F4206877
S113187002C0883641F4F60193FD859193FF81916E
S11318806F018111C1CF982F9F7D9554933028F417
S11318900C5F1F4FFFE3F9830DC0833631F08337AC
S11318A071F0833509F05BC022C0F801808189831F
S11318B00E5F1F4F44244394512C540115C038012A
S11318C0F2E06F0E711CF801A080B18026FF03C006
S11318D0652D70E002C06FEF7FEFC5012C870E9479
S11318E0D90D2C0183012C852F77222E17C03801A6
S11318F0F2E06F0E711CF801A080B18026FF03C0D6
S1131900652D70E002C06FEF7FEFC5012C870E9448
S1131910CE0D2C012C852068222E830123FC1BC0B4
S1131920832D90E048165906B0F4B70180E290E0A8
S11319300E94E40D3A94F4CFF50127FC859127FE2B
S113194081915F01B70190E00E94E40D31103A9457
S1131950F1E04F1A51084114510471F7E5C084367F
S113196011F0893639F5F80127FF07C060817181CC
S1131970828193810C5F1F4F08C060817181882729
S113198077FD8095982F0E5F1F4F2F76B22E97FF0D
S113199009C090958095709561957F4F8F4F9F4FAB
S11319A02068B22E2AE030E0A4010E94160EA82E70
S11319B0A81844C0853729F42F7EB22E2AE030E0DF
S11319C025C0F22FF97FBF2E8F36C1F018F4883569
S11319D079F0B4C0803719F0883721F0AFC02F2FC9
S11319E02061B22EB4FE0DC08B2D8460B82E09C0C8
S11319F024FF0AC09F2F9660B92E06C028E030E06D
S1131A0005C020E130E002C020E132E0F801B7FE79
S1131A1007C060817181828193810C5F1F4F06C072
S1131A206081718180E090E00E5F1F4FA4010E94ED
S1131A30160EA82EA818FB2DFF77BF2EB6FE0BC0DE
S1131A402B2D2E7FA51450F4B4FE0AC0B2FC08C09E
S1131A502B2D2E7E05C07A2C2B2D03C07A2C01C091
S1131A60752C24FF0DC0FE01EA0DF11D8081803329
S1131A7011F4297E09C022FF06C07394739404C034
S1131A80822F867809F0739423FD13C020FF06C0CB
S1131A905A2C731418F4530C5718732C731468F4D9
S1131AA0B70180E290E02C870E94E40D73942C85AA
S1131AB0F5CF731410F4371801C0312C24FF12C071
S1131AC0B70180E390E02C870E94E40D2C8522FF6F
S1131AD017C021FF03C088E590E002C088E790E0CA
S1131AE0B7010CC0822F867859F021FD02C080E234
S1131AF001C08BE227FD8DE2B70190E00E94E40D66
S1131B00A51438F4B70180E390E00E94E40D5A94E0
S1131B10F7CFAA94F401EA0DF11D8081B70190E09A
S1131B200E94E40DA110F5CF332009F451CEB70182
S1131B3080E290E00E94E40D3A94F6CFF7018681AA
S1131B40978102C08FEF9FEF2C96E2E10C94A00ED8
S1131B50F999FECF92BD81BDF89A992780B5089571
S1131B60A8E1B0E042E050E00C94760E262FF999FB
S1131B70FECF92BD81BDF89A019700B4021639F0E8
S1131B801FBA20BD0FB6F894FA9AF99A0FBE0895B9
S1131B900196272F0E94B70D0C94B60DFC010590F9
S1131BA0615070400110D8F7809590958E0F9F1F5B
S1131BB00895FC016150704001900110D8F78095A0
S1131BC090958E0F9F1F08950F931F93CF93DF93CC
S1131BD0182F092FEB018B8181FD03C08FEF9FEF3D
S1131BE020C082FF10C04E815F812C813D8142174D
S1131BF053077CF4E881F9819F012F5F3F4F3983BC
S1131C002883108306C0E885F985812F0995892BDF
S1131C1029F72E813F812F5F3F4F3F832E83812FF2
S1131C20902FDF91CF911F910F910895FA01AA2768
S1131C30283051F1203181F1E8946F936E7F6E5F0B
S1131C407F4F8F4F9F4FAF4FB1E03ED0B4E03CD0B9
S1131C50670F781F891F9A1FA11D680F791F8A1F9C
S1131C60911DA11D6A0F711D811D911DA11D20D003
S1131C7009F468943F912AE0269F11243019305DBD
S1131C803193DEF6CF010895462F4770405D4193AE
S1131C90B3E00FD0C9F7F6CF462F4F70405D4A33FB
S1131CA018F0495D31FD4052419302D0A9F7EACFC3
S1131CB0B4E0A6959795879577956795BA95C9F7F2
S1131CC000976105710508959B01AC010A2E0694E5
S1131CD05795479537952795BA95C9F7620F731F9E
S1131CE0841F951FA01D0895DC01CB01FC01F99907
S1131CF0FECF06C0F2BDE1BDF89A319600B40D9254
S1131D0041505040B8F708952F923F924F925F92FE
S1131D106F927F928F929F92AF92BF92CF92DF92F7
S1131D20EF92FF920F931F93CF93DF93CDB7DEB75C
S1131D30CA1BDB0B0FB6F894DEBF0FBECDBF0994F0
S1131D402A88398848885F846E847D848C849B8447
S1131D50AA84B984C884DF80EE80FD800C811B8155
S1131D60AA81B981CE0FD11D0FB6F894DEBF0FBE84
S10D1D70CDBFED010895F894FFCFF4
S1131D7A00005D02200041304130354633300041D5
S1131D8A30413033303546004130413035434336F3
S1131D9A0041304130433635430041304130374504
S1131DAA3936004130413039363745004130413007
S1131DBA37453938004130413039383745004530E4
S1131DCA45303230444600453045304130354600CE
S1131DDA4530453036303946004530453031304596
S1131DEA46004530453039303646004530453035B1
S1131DFA304146004530453033304346004530458E
S1131E0A3042303446003030303000303030310027
S1131E1A3030313000303031310030313030003040
S1131E2A313031003031313000303131310031302C
S1131E3A303000313030310031303130003130311E
S1131E4A310031313030003131303100313131300B
S1131E5A0031313131002573257300423143330097
S1131E6A464330303931303341334233004F4B002B
S9030000FC
